{
  "_format": "hh-sol-artifact-1",
  "contractName": "StrategyStore",
  "sourceName": "contracts/StrategyStore.sol",
  "abi": [
    {
      "anonymous": false,
      "inputs": [
        {
          "indexed": true,
          "internalType": "bytes32",
          "name": "id",
          "type": "bytes32"
        },
        {
          "indexed": false,
          "internalType": "uint256",
          "name": "size",
          "type": "uint256"
        }
      ],
      "name": "StrategyStored",
      "type": "event"
    },
    {
      "inputs": [
        {
          "internalType": "bytes32",
          "name": "id",
          "type": "bytes32"
        }
      ],
      "name": "getStrategy",
      "outputs": [
        {
          "internalType": "bytes",
          "name": "",
          "type": "bytes"
        }
      ],
      "stateMutability": "view",
      "type": "function"
    },
    {
      "inputs": [
        {
          "internalType": "bytes32",
          "name": "id",
          "type": "bytes32"
        },
        {
          "internalType": "bytes",
          "name": "payload",
          "type": "bytes"
        }
      ],
      "name": "storeStrategy",
      "outputs": [],
      "stateMutability": "nonpayable",
      "type": "function"
    }
  ],
  "bytecode": "0x6080604052348015600f57600080fd5b506103e98061001f6000396000f3fe608060405234801561001057600080fd5b50600436106100365760003560e01c806328c84bbd1461003b57806360dac80614610064575b600080fd5b61004e61004936600461016f565b610079565b60405161005b9190610188565b60405180910390f35b6100776100723660046101d6565b61011b565b005b600081815260208190526040902080546060919061009690610254565b80601f01602080910402602001604051908101604052809291908181526020018280546100c290610254565b801561010f5780601f106100e45761010080835404028352916020019161010f565b820191906000526020600020905b8154815290600101906020018083116100f257829003601f168201915b50505050509050919050565b60008381526020819052604090206101348284836102f3565b5060405181815283907f3e7c5c83f0e368979a70f079ec20fdb95f3f926d31dd8e16d68344eb464887ac9060200160405180910390a2505050565b60006020828403121561018157600080fd5b5035919050565b602081526000825180602084015260005b818110156101b65760208186018101516040868401015201610199565b506000604082850101526040601f19601f83011684010191505092915050565b6000806000604084860312156101eb57600080fd5b83359250602084013567ffffffffffffffff81111561020957600080fd5b8401601f8101861361021a57600080fd5b803567ffffffffffffffff81111561023157600080fd5b86602082840101111561024357600080fd5b939660209190910195509293505050565b600181811c9082168061026857607f821691505b60208210810361028857634e487b7160e01b600052602260045260246000fd5b50919050565b634e487b7160e01b600052604160045260246000fd5b601f8211156102ee57806000526020600020601f840160051c810160208510156102cb5750805b601f840160051c820191505b818110156102eb57600081556001016102d7565b50505b505050565b67ffffffffffffffff83111561030b5761030b61028e565b61031f836103198354610254565b836102a4565b6000601f841160018114610353576000851561033b5750838201355b600019600387901b1c1916600186901b1783556102eb565b600083815260209020601f19861690835b828110156103845786850135825560209485019460019092019101610364565b50868210156103a15760001960f88860031b161c19848701351681555b505060018560011b018355505050505056fea26469706673582212207d7969e189c2b077a2dd7495de44e9b9c3ded23639c984c9659d6a1a80f1005c64736f6c634300081c0033",
  "linkReferences": {},
  "deployedLinkReferences": {}
}