{
  "_format": "hh-sol-artifact-1",
  "contractName": "EncryptedPortfolio",
  "sourceName": "contracts/EncryptedPortfolio.sol",
  "abi": [
    {
      "inputs": [
        {
          "internalType": "bytes32",
          "name": "",
          "type": "bytes32"
        }
      ],
      "name": "encryptedStates",
      "outputs": [
        {
          "internalType": "bytes",
          "name": "data",
          "type": "bytes"
        },
        {
          "internalType": "bytes12",
          "name": "iv",
          "type": "bytes12"
        }
      ],
      "stateMutability": "view",
      "type": "function"
    },
    {
      "inputs": [
        {
          "internalType": "bytes32",
          "name": "id",
          "type": "bytes32"
        },
        {
          "internalType": "bytes",
          "name": "data",
          "type": "bytes"
        },
        {
          "internalType": "bytes12",
          "name": "iv",
          "type": "bytes12"
        }
      ],
      "name": "storeState",
      "outputs": [],
      "stateMutability": "nonpayable",
      "type": "function"
    }
  ],
  "bytecode": "0x6080604052348015600f57600080fd5b506104688061001f6000396000f3fe608060405234801561001057600080fd5b50600436106100355760003560e01c8062931eff1461003a5780630f41217d1461004f575b600080fd5b61004d6100483660046101b7565b610079565b005b61006261005d366004610255565b610110565b60405161007092919061026e565b60405180910390f35b6040805160606020601f8601819004028201810183529181018481529091829190869086908190850183828082843760009201829052509385525050506001600160a01b031984166020928301528681529081905260409020815181906100e09082610373565b5060209190910151600190910180546bffffffffffffffffffffffff191660a09290921c91909117905550505050565b60006020819052908152604090208054819061012b906102ea565b80601f0160208091040260200160405190810160405280929190818152602001828054610157906102ea565b80156101a45780601f10610179576101008083540402835291602001916101a4565b820191906000526020600020905b81548152906001019060200180831161018757829003601f168201915b5050506001909301549192505060a01b82565b600080600080606085870312156101cd57600080fd5b84359350602085013567ffffffffffffffff8111156101eb57600080fd5b8501601f810187136101fc57600080fd5b803567ffffffffffffffff81111561021357600080fd5b87602082840101111561022557600080fd5b6020919091019350915060408501356001600160a01b03198116811461024a57600080fd5b939692955090935050565b60006020828403121561026757600080fd5b5035919050565b604081526000835180604084015260005b8181101561029c576020818701810151606086840101520161027f565b506000606082850101526060601f19601f8301168401019150506bffffffffffffffffffffffff60a01b831660208301529392505050565b634e487b7160e01b600052604160045260246000fd5b600181811c908216806102fe57607f821691505b60208210810361031e57634e487b7160e01b600052602260045260246000fd5b50919050565b601f82111561036e57806000526020600020601f840160051c8101602085101561034b5750805b601f840160051c820191505b8181101561036b5760008155600101610357565b50505b505050565b815167ffffffffffffffff81111561038d5761038d6102d4565b6103a18161039b84546102ea565b84610324565b6020601f8211600181146103d557600083156103bd5750848201515b600019600385901b1c1916600184901b17845561036b565b600084815260208120601f198516915b8281101561040557878501518255602094850194600190920191016103e5565b50848210156104235786840151600019600387901b60f8161c191681555b50505050600190811b0190555056fea26469706673582212203f9a4d4c4681a03d50c96dc9db8dcb0cca21b2bc21eb952b194d90c204052d4564736f6c634300081c0033",
  "linkReferences": {},
  "deployedLinkReferences": {}
}