{
  "_format": "hh-sol-artifact-1",
  "contractName": "AgentRegistry",
  "sourceName": "contracts/AgentRegistry.sol",
  "abi": [
    {
      "inputs": [
        {
          "internalType": "address",
          "name": "admin",
          "type": "address"
        }
      ],
      "stateMutability": "nonpayable",
      "type": "constructor"
    },
    {
      "inputs": [],
      "name": "AccessControlBadConfirmation",
      "type": "error"
    },
    {
      "inputs": [
        {
          "internalType": "address",
          "name": "account",
          "type": "address"
        },
        {
          "internalType": "bytes32",
          "name": "neededRole",
          "type": "bytes32"
        }
      ],
      "name": "AccessControlUnauthorizedAccount",
      "type": "error"
    },
    {
      "anonymous": false,
      "inputs": [
        {
          "indexed": true,
          "internalType": "bytes32",
          "name": "agentID",
          "type": "bytes32"
        },
        {
          "indexed": true,
          "internalType": "address",
          "name": "owner",
          "type": "address"
        },
        {
          "indexed": false,
          "internalType": "string",
          "name": "metadataURI",
          "type": "string"
        }
      ],
      "name": "AgentCreated",
      "type": "event"
    },
    {
      "anonymous": false,
      "inputs": [
        {
          "indexed": true,
          "internalType": "bytes32",
          "name": "agentID",
          "type": "bytes32"
        },
        {
          "indexed": false,
          "internalType": "string",
          "name": "metadataURI",
          "type": "string"
        }
      ],
      "name": "AgentUpdated",
      "type": "event"
    },
    {
      "anonymous": false,
      "inputs": [
        {
          "indexed": true,
          "internalType": "bytes32",
          "name": "role",
          "type": "bytes32"
        },
        {
          "indexed": true,
          "internalType": "bytes32",
          "name": "previousAdminRole",
          "type": "bytes32"
        },
        {
          "indexed": true,
          "internalType": "bytes32",
          "name": "newAdminRole",
          "type": "bytes32"
        }
      ],
      "name": "RoleAdminChanged",
      "type": "event"
    },
    {
      "anonymous": false,
      "inputs": [
        {
          "indexed": true,
          "internalType": "bytes32",
          "name": "role",
          "type": "bytes32"
        },
        {
          "indexed": true,
          "internalType": "address",
          "name": "account",
          "type": "address"
        },
        {
          "indexed": true,
          "internalType": "address",
          "name": "sender",
          "type": "address"
        }
      ],
      "name": "RoleGranted",
      "type": "event"
    },
    {
      "anonymous": false,
      "inputs": [
        {
          "indexed": true,
          "internalType": "bytes32",
          "name": "role",
          "type": "bytes32"
        },
        {
          "indexed": true,
          "internalType": "address",
          "name": "account",
          "type": "address"
        },
        {
          "indexed": true,
          "internalType": "address",
          "name": "sender",
          "type": "address"
        }
      ],
      "name": "RoleRevoked",
      "type": "event"
    },
    {
      "inputs": [],
      "name": "DEFAULT_ADMIN_ROLE",
      "outputs": [
        {
          "internalType": "bytes32",
          "name": "",
          "type": "bytes32"
        }
      ],
      "stateMutability": "view",
      "type": "function"
    },
    {
      "inputs": [],
      "name": "MANAGER_ROLE",
      "outputs": [
        {
          "internalType": "bytes32",
          "name": "",
          "type": "bytes32"
        }
      ],
      "stateMutability": "view",
      "type": "function"
    },
    {
      "inputs": [
        {
          "internalType": "bytes32",
          "name": "",
          "type": "bytes32"
        }
      ],
      "name": "agents",
      "outputs": [
        {
          "internalType": "address",
          "name": "owner",
          "type": "address"
        },
        {
          "internalType": "string",
          "name": "metadataURI",
          "type": "string"
        }
      ],
      "stateMutability": "view",
      "type": "function"
    },
    {
      "inputs": [
        {
          "internalType": "bytes32",
          "name": "agentID",
          "type": "bytes32"
        },
        {
          "internalType": "string",
          "name": "uri",
          "type": "string"
        }
      ],
      "name": "createAgent",
      "outputs": [],
      "stateMutability": "nonpayable",
      "type": "function"
    },
    {
      "inputs": [
        {
          "internalType": "bytes32",
          "name": "role",
          "type": "bytes32"
        }
      ],
      "name": "getRoleAdmin",
      "outputs": [
        {
          "internalType": "bytes32",
          "name": "",
          "type": "bytes32"
        }
      ],
      "stateMutability": "view",
      "type": "function"
    },
    {
      "inputs": [
        {
          "internalType": "bytes32",
          "name": "role",
          "type": "bytes32"
        },
        {
          "internalType": "address",
          "name": "account",
          "type": "address"
        }
      ],
      "name": "grantRole",
      "outputs": [],
      "stateMutability": "nonpayable",
      "type": "function"
    },
    {
      "inputs": [
        {
          "internalType": "bytes32",
          "name": "role",
          "type": "bytes32"
        },
        {
          "internalType": "address",
          "name": "account",
          "type": "address"
        }
      ],
      "name": "hasRole",
      "outputs": [
        {
          "internalType": "bool",
          "name": "",
          "type": "bool"
        }
      ],
      "stateMutability": "view",
      "type": "function"
    },
    {
      "inputs": [
        {
          "internalType": "bytes32",
          "name": "role",
          "type": "bytes32"
        },
        {
          "internalType": "address",
          "name": "callerConfirmation",
          "type": "address"
        }
      ],
      "name": "renounceRole",
      "outputs": [],
      "stateMutability": "nonpayable",
      "type": "function"
    },
    {
      "inputs": [
        {
          "internalType": "bytes32",
          "name": "role",
          "type": "bytes32"
        },
        {
          "internalType": "address",
          "name": "account",
          "type": "address"
        }
      ],
      "name": "revokeRole",
      "outputs": [],
      "stateMutability": "nonpayable",
      "type": "function"
    },
    {
      "inputs": [
        {
          "internalType": "bytes4",
          "name": "interfaceId",
          "type": "bytes4"
        }
      ],
      "name": "supportsInterface",
      "outputs": [
        {
          "internalType": "bool",
          "name": "",
          "type": "bool"
        }
      ],
      "stateMutability": "view",
      "type": "function"
    },
    {
      "inputs": [
        {
          "internalType": "bytes32",
          "name": "agentID",
          "type": "bytes32"
        },
        {
          "internalType": "string",
          "name": "uri",
          "type": "string"
        }
      ],
      "name": "updateAgent",
      "outputs": [],
      "stateMutability": "nonpayable",
      "type": "function"
    }
  ],
  "bytecode": "0x608060405234801561001057600080fd5b50604051610bef380380610bef83398101604081905261002f91610118565b61003a60008261006c565b506100657f241ecf16d79d0f8dbfb92cbc07fe17840425976cf0667f022fe9877caa831b088261006c565b5050610148565b6000828152602081815260408083206001600160a01b038516845290915281205460ff1661010e576000838152602081815260408083206001600160a01b03861684529091529020805460ff191660011790556100c63390565b6001600160a01b0316826001600160a01b0316847f2f8788117e7eff1d82e926ec794901d17c78024a50270940304540a733656f0d60405160405180910390a4506001610112565b5060005b92915050565b60006020828403121561012a57600080fd5b81516001600160a01b038116811461014157600080fd5b9392505050565b610a98806101576000396000f3fe608060405234801561001057600080fd5b50600436106100a95760003560e01c806336568abe1161007157806336568abe1461015057806391d1485414610163578063a217fddf14610176578063d547741f1461017e578063ec87621c14610191578063f8e66c6e146101b857600080fd5b806301ffc9a7146100ae578063248a9ca3146100d65780632a083465146101075780632e20ee181461011c5780632f2ff15d1461013d575b600080fd5b6100c16100bc3660046106b5565b6101cb565b60405190151581526020015b60405180910390f35b6100f96100e43660046106e6565b60009081526020819052604090206001015490565b6040519081526020016100cd565b61011a6101153660046106ff565b610202565b005b61012f61012a3660046106e6565b61035e565b6040516100cd92919061077d565b61011a61014b3660046107da565b61040e565b61011a61015e3660046107da565b610439565b6100c16101713660046107da565b610471565b6100f9600081565b61011a61018c3660046107da565b61049a565b6100f97f241ecf16d79d0f8dbfb92cbc07fe17840425976cf0667f022fe9877caa831b0881565b61011a6101c63660046106ff565b6104bf565b60006001600160e01b03198216637965db0b60e01b14806101fc57506301ffc9a760e01b6001600160e01b03198316145b92915050565b7f241ecf16d79d0f8dbfb92cbc07fe17840425976cf0667f022fe9877caa831b0861022c8161056e565b6000848152600160205260409020546001600160a01b03161561027f5760405162461bcd60e51b815260206004820152600660248201526565786973747360d01b60448201526064015b60405180910390fd5b6040518060400160405280336001600160a01b0316815260200184848080601f0160208091040260200160405190810160405280939291908181526020018383808284376000920182905250939094525050868152600160208181526040909220845181546001600160a01b0319166001600160a01b039091161781559184015191925082019061031090826108b4565b50905050336001600160a01b0316847f1443f14f42850f74ea2c13a3c01b271807b7797276b8bf9959f9fd054003133e8585604051610350929190610973565b60405180910390a350505050565b6001602081905260009182526040909120805491810180546001600160a01b039093169261038b9061082c565b80601f01602080910402602001604051908101604052809291908181526020018280546103b79061082c565b80156104045780601f106103d957610100808354040283529160200191610404565b820191906000526020600020905b8154815290600101906020018083116103e757829003601f168201915b5050505050905082565b6000828152602081905260409020600101546104298161056e565b610433838361057b565b50505050565b6001600160a01b03811633146104625760405163334bd91960e11b815260040160405180910390fd5b61046c828261060d565b505050565b6000918252602082815260408084206001600160a01b0393909316845291905290205460ff1690565b6000828152602081905260409020600101546104b58161056e565b610433838361060d565b6000838152600160205260409020546001600160a01b031633146105115760405162461bcd60e51b81526020600482015260096024820152683737ba1037bbb732b960b91b6044820152606401610276565b60008381526001602081905260409091200161052e8284836109a2565b50827f1f4703d97a7ba241088b5d647231164887793dc56fcab7fa8661dd86eea1112d8383604051610561929190610973565b60405180910390a2505050565b6105788133610678565b50565b60006105878383610471565b610605576000838152602081815260408083206001600160a01b03861684529091529020805460ff191660011790556105bd3390565b6001600160a01b0316826001600160a01b0316847f2f8788117e7eff1d82e926ec794901d17c78024a50270940304540a733656f0d60405160405180910390a45060016101fc565b5060006101fc565b60006106198383610471565b15610605576000838152602081815260408083206001600160a01b0386168085529252808320805460ff1916905551339286917ff6391f5c32d9c69d2a47ea670b442974b53935d1edc7fd64eb21e047a839171b9190a45060016101fc565b6106828282610471565b6106b15760405163e2517d3f60e01b81526001600160a01b038216600482015260248101839052604401610276565b5050565b6000602082840312156106c757600080fd5b81356001600160e01b0319811681146106df57600080fd5b9392505050565b6000602082840312156106f857600080fd5b5035919050565b60008060006040848603121561071457600080fd5b83359250602084013567ffffffffffffffff81111561073257600080fd5b8401601f8101861361074357600080fd5b803567ffffffffffffffff81111561075a57600080fd5b86602082840101111561076c57600080fd5b939660209190910195509293505050565b60018060a01b0383168152604060208201526000825180604084015260005b818110156107b9576020818601810151606086840101520161079c565b506000606082850101526060601f19601f8301168401019150509392505050565b600080604083850312156107ed57600080fd5b8235915060208301356001600160a01b038116811461080b57600080fd5b809150509250929050565b634e487b7160e01b600052604160045260246000fd5b600181811c9082168061084057607f821691505b60208210810361086057634e487b7160e01b600052602260045260246000fd5b50919050565b601f82111561046c57806000526020600020601f840160051c8101602085101561088d5750805b601f840160051c820191505b818110156108ad5760008155600101610899565b5050505050565b815167ffffffffffffffff8111156108ce576108ce610816565b6108e2816108dc845461082c565b84610866565b6020601f82116001811461091657600083156108fe5750848201515b600019600385901b1c1916600184901b1784556108ad565b600084815260208120601f198516915b828110156109465787850151825560209485019460019092019101610926565b50848210156109645786840151600019600387901b60f8161c191681555b50505050600190811b01905550565b60208152816020820152818360408301376000818301604090810191909152601f909201601f19160101919050565b67ffffffffffffffff8311156109ba576109ba610816565b6109ce836109c8835461082c565b83610866565b6000601f841160018114610a0257600085156109ea5750838201355b600019600387901b1c1916600186901b1783556108ad565b600083815260209020601f19861690835b82811015610a335786850135825560209485019460019092019101610a13565b5086821015610a505760001960f88860031b161c19848701351681555b505060018560011b018355505050505056fea2646970667358221220e50e9bb0d0d0265bd0079557b7827ed50f5082635de33e0bfd12407e8cb6d4f364736f6c634300081c0033",
  "linkReferences": {},
  "deployedLinkReferences": {}
}